S01700004763634170706C69636174696F6E312E737265635B
S11300000C942A000C94C1030C9447000C944700F0
S11300100C9447000C9447000C9447000C94470040
S11300200C9447000C9447000C9447000C94470030
S11300300C9447000C9447000C9447000C94470020
S11300400C9447000C9447000C9447000C94470010
S11300500C94470011241FBECFE5D8E0DEBFCDBF0E
S113006013E0A0E6B0E0E2E2F1E102C005900D92F7
S1130070A63CB107D9F726E0A6ECB3E001C01D9277
S1130080A23CB207E1F70E9493050C948F080C94EC
S11300900000AF92BF92CF92DF92EF92FF920F9344
S11300A01F93CF93DF9380E58093D80581E090E0A0
S11300B09093D7058093D6052EE030E03093D30596
S11300C02093D20527E030E03093D5052093D40562
S11300D026E42093E3051092E2051092E1052DE059
S11300E030E03093DE052093DD0528E030E03093E6
S11300F0E0052093DF054DE44093EE059093ED0574
S11301008093EC051092E9051092E8051092EB0536
S11301101092EA051092E7051092E6054093F9055E
S11301209093F8058093F7051092F4051092F30567
S11301303093F6052093F5051092F2051092F1051F
S113014064E076E002E010E020E030E06894AA2465
S1130150A1F8B12C0F2EF2E4DF2EF02D41E050E097
S11301600F2EF1E4CF2EF02D21C02230310544F4BE
S1130170CC9255834483F182E0829383828307C0C7
S1130180DC925583448393838283D183C0831B96FB
S11301903B9603968E30910541F72F5F3F4F0E5FDC
S11301A01F4F645D7F4F2430310549F07801FB0116
S11301B03697DB018A2D9B2DE8012196D6CFDF915E
S11301C0CF911F910F91FF90EF90DF90CF90BF9050
S11301D0AF9008956F927F928F929F92AF92BF9249
S11301E0CF92DF92EF92FF920F931F93CF93DF93FF
S11301F0BC0140E050E0B0E1A0E00EC011921192C9
S11302002150310921153105C9F74F5F5F4F605EF9
S11302107F4F4031510521F0FB012B2F3A2FEECFB8
S1130220E2EDF5E0A8EDB5E04EEA56E068948824E6
S113023081F8912C61E070E024813581232B09F44D
S1130240E5C0E080F180228133811C91163409F4E9
S113025045C038F4113409F484C0123409F4A9C037
S1130260D5C01D3409F44EC0103509F0CFC0EE0CD2
S1130270FF1CEE0CFF1CEE0CFF1CEE0CFF1CEE0C26
S1130280FF1C59011FEFA11AB10A8701005E1F4F1D
S11302903801680E791E6901C2E0CC0ED11CCC0C69
S11302A0DD1CC60CD71CE60199828882AA0CBB1CF3
S11302B06301CA0CDB1CE60199828882220F331F7A
S11302C08301020F131FE80199828882E80EF91E48
S11302D0AE0CBF1CE5019982888298C0EE0CFF1C0D
S11302E0EE0CFF1CEE0CFF1CEE0CFF1CEE0CFF1CB6
S11302F0E80EF91E220F331F2E0D3F1DE9019982CE
S1130300888284C0EE0CFF1CEE0CFF1CEE0CFF1C5C
S1130310EE0CFF1CEE0CFF1CE80EF91E89010F5FAA
S11303201F4F000F111F6701C00ED11EE60179A3F4
S113033068A36901D2E0CD0ED11CCC0CDD1CCE0C1F
S1130340DF1CE601798368830E0D1F1DE8017983A4
S11303506883220F331FE20EF31EE701798368835B
S113036055C0EE0CFF1CEE0CFF1CEE0CFF1CEE0C3B
S1130370FF1CEE0CFF1CE80EF91E89010F5F1F4FD6
S1130380000F111F0E0D1F1DE80179A368A3890139
S11303900E5F1F4F000F111F0E0D1F1DE801798303
S11303A06883220F331FE20EF31EE701798368830B
S11303B02DC0EE0CFF1CEE0CFF1CEE0CFF1CEE0C13
S11303C0FF1CEE0CFF1C8701005E1F4F080F191F56
S11303D06901D2E0CD0ED11CCC0CDD1CC00ED11EA7
S11303E0E601798368836901CC0CDD1C0C0D1D1DAD
S11303F0E80179836883E80EF91E2F5F3F4F220FCF
S1130400331FE20EF31EE701798368833B961B9644
S1130410E417F50709F010CFDF91CF911F910F91E9
S1130420FF90EF90DF90CF90BF90AF909F908F9010
S11304307F906F90089580EF81BB8FEC8ABB8FEF24
S113044087BB84BB80E884BF84BF0895883091054E
S113045054F421E030E0A90102C0440F551F8A95ED
S1130460E2F748BB11C087709078992324F4019770
S1130470886F9F6F019621E030E0A90102C0440F0C
S1130480551F8A95E2F745BB60686BBB08958830B9
S1130490910554F421E030E0A90102C0440F551F36
S11304A08A95E2F748BB11C087709078992324F4A9
S11304B00197886F9F6F019621E030E0A90102C087
S11304C0440F551F8A95E2F745BB80E48BBB6295C8
S11304D0607F62BB0895AF92BF92CF92DF92EF929A
S11304E0FF920F931F93CF93DF936C01E12CF12CB8
S11304F0A12CB12C29C015BA18BAF8012191319157
S11305008F012230310529F4BE01C7010E94470240
S11305100AC02130310529F4BE01C7010E94260218
S113052002C015BA18BAF5E0FA95F1F72196C03170
S1130530D10509F78FEFE81AF80AE0E2CE0ED11CD4
S1130540F0E1EF16F10421F08601CA2DDB2DD3CFA3
S1130550DF91CF911F910F91FF90EF90DF90CF909B
S1130560BF90AF9008958091640090916500892BAD
S1130570C1F08091EA059091EB0501968E309105CA
S11305802CF49093EB058093EA0521C08DE090E074
S11305909093EB058093EA05109265001092640035
S11305A016C08091EA059091EB05019799232CF0F0
S11305B09093EB058093EA050AC01092EB05109224
S11305C0EA0581E090E09093650080936400809157
S11305D0CC039091CD03892BC1F08091F5059091C6
S11305E0F60501968E3091052CF49093F6058093D0
S11305F0F50508958DE090E09093F6058093F50558
S11306001092CD031092CC0308958091F50590913A
S1130610F605019799232CF09093F6058093F50540
S113062008951092F6051092F50581E090E09093FC
S1130630CD038093CC0308954091CA035091CB031A
S1130640EEEFF5E02EEA36E04115510531F08281F6
S1130650938101969383828305C08281938101975C
S113066093838283808191810196918380834097D3
S113067014F0158214823B96E217F30729F7809150
S1130680CA039091CB0321E082279093CB038093FC
S1130690CA0308958091E1059091E205892B69F0E0
S11306A0EDEDF5E080819181019791838083992319
S11306B024F41092E2051092E1050895CF93DF939C
S11306C084E687B982E886B9369A3699FECF84B132
S11306D090E00024880F991F001C880F991F001CAC
S11306E0892F902D65B170E0660F771F660F771F15
S11306F0682B792B80E090E00E942C0720E030E00A
S113070040EA5BE30E94BE07C1E0D0E020916000B4
S11307103091610040916200509163000E94BA07D9
S1130720181614F0C0E0D0E0CE01DF91CF91089507
S11307308091E1059091E205892B11F58091D60510
S11307409091D7050197E1F40E945E030197C1F4EB
S113075081E090E09093E2058093E1058091D205D9
S11307609091D30501979093DE058093DD058091E8
S1130770D4059091D50501969093E0058093DF050B
S113078008951F920F920FB60F9211248F939F9387
S11307908091C6039091C703019769F41EBC8CB580
S11307A09DB59093C9038093C8031DBC1CBC1092D3
S11307B0C7031092C6038091C6039091C703892B87
S11307C049F48EB581608EBD81E090E09093C703BB
S11307D08093C6039F918F910F900FBE0F901F902F
S11307E018958091D6059091D705892B09F44CC0B2
S11307F08BEF81BB80E48BBF85B7816085BF789424
S1130800909A85E08A95F1F790988091C803909129
S1130810C9036AE370E00E9445086530710534F04D
S11308206F3171052CF06EE170E002C065E070E09C
S1130830882777FD8095982F0E942E0720E030E0CE
S113084040EA50E40E942E069B01AC0160E070E097
S113085088EC91E40E942E0620E030E048EC51E45C
S11308600E94930620E030E040E551E40E94BE0778
S11308700E94FB067093D5056093D4058EE090E04A
S11308809093D3058093D2050895481759072CF403
S1130890F82FE92FCA014F2F5E2F261737072CF4A4
S11308A0F62FE72FB9012F2F3E2F481B590B42304B
S11308B051054CF4261B370B81E090E023303105C1
S11308C024F080E0089580E090E00895AF92BF9214
S11308D0CF92DF92EF92FF920F931F93CF93DF9308
S11308E04091DD055091DE05C091DF05D091E00512
S11308F00091CE031091CF03E8EEF5E082E090E0A2
S11309000F2EF1EEEF2EF5E0FF2EF02D2481358130
S1130910232B31F120813181628173814217530786
S1130920FCF02F5F3F4F24173507D4F0C617D707C5
S1130930BCF06E5F7F4F6C177D0794F015821482B4
S1130940D7011D921C92843091051CF00F5F1F4F3C
S113095007C09801220F331F220F331F020F131FEA
S113096001963B968431910589F61093CF03009349
S1130970CE03C090D205D090D305E090D405F0907A
S1130980D505CEEFD5E00EEA16E00F2EF6EDAF2E2C
S1130990F5E0BF2EF02D2C813D81232B69F02A81B7
S11309A03B8148815981B701C6010E944504892BC6
S11309B019F0F501118210822B96C017D10759F74F
S11309C0DF91CF911F910F91FF90EF90DF90CF9027
S11309D0BF90AF900895CF92DF92EF92FF920F9362
S11309E01F93CF93DF93FC0139968E179F07CCF5A5
S11309F0E8E4E49F8001E59F100D11240A591F4F7C
S1130A0082959295907F9827807F9827860F971FCD
S1130A10880F991FE901C80FD91F790140EEE41A24
S1130A204EEFF40AE80EF91E9B012C5F3F4F6894C9
S1130A30CC24C2F8D12C0DC0419151914D935D93BA
S1130A4001970097C9F7085F1F4FA096CE15DF05E1
S1130A5041F062177307BCF7DE01F8018C2D9D2D60
S1130A60EBCFDF91CF911F910F91FF90EF90DF902B
S1130A70CF900895EF92FF920F931F93CF93DF933C
S1130A80E82EF92E682F792FA0E0B0E090E180E005
S1130A900DC0119211924150510941155105C9F7E8
S1130AA01196605E7F4FA031B10521F0FB01492F03
S1130AB0582FEFCF8091CE039091CF03EAE0F0E07E
S1130AC0BF010E944508EC01CB01BF010E9445080B
S1130AD08C017093CF036093CE03CB01BF010E94BE
S1130AE045082E2D3F2DAC0160E070E083E090E0DE
S1130AF00E94EB042E2D3F2DA80165E070E083E0F9
S1130B0090E00E94EB042E2D3F2DAE016AE070E0D0
S1130B1083E090E00E94EB04DF91CF911F910F914D
S1130B20FF90EF9008950F2EFCE34F2E512C612C73
S1130B30712CF02D0F2EF5E08F2E912CA12CB12CC1
S1130B40F02DC6EDD5E00CEE15E00F2EF7EF2F2EAD
S1130B50F5E03F2EF02D1092CF031092CE030E94A9
S1130B601B020E94490080ED93E00E94EA00C12C20
S1130B70D12CE12CF12CC701B601A30192010E94F2
S1130B805908672B682B692B11F40E941C03C701B9
S1130B90B601A50194010E945908672B682B692BA3
S1130BA011F40E94B302C701B6012AE030E040E02C
S1130BB050E00E945908672B682B692B11F40E949E
S1130BC0F1030E949803C0FE0E944A030E941B0284
S1130BD00E94660480ED93E00E94EA008881998176
S1130BE0892BA1F0F80180819181892B29F4F101ED
S1130BF080819181892B51F080ED93E00E946B02FA
S1130C00FFEFCF1ADF0AEF0AFF0AB5CF80ED93E0BA
S1130C100E943A058DEC9CECACE6B0E48093600055
S1130C2090936100A0936200B093630006C00E9499
S1130C301B0280ED93E00E946B020E945E03892BED
S1130C40B1F380E090E0A0E4B0E48093600090937E
S1130C506100A0936200B09363007DCF5058BB271E
S1130C60AA270ED04DC13ED130F043D120F031F44B
S1130C709F3F11F41EF433C10EF4E095E7FB29C144
S1130C80E92F4FD180F3BA176207730784079507DA
S1130C9018F071F49EF567C10EF4E0950B2EBA2F8F
S1130CA0A02D0B01B90190010C01CA01A00111246E
S1130CB0FF27591B99F0593F50F4503E68F11A161A
S1130CC0F040A22F232F342F4427585FF3CF4695AB
S1130CD037952795A795F0405395C9F77EF41F16CD
S1130CE0BA0B620B730B840BBAF09150A1F0FF0F97
S1130CF0BB1F661F771F881FC2F70EC0BA0F621F83
S1130D00731F841F48F4879577956795B795F79572
S1130D109E3F08F0B3CF9395880F08F09927EE0F04
S1130D209795879508950CD0EBC0E3D040F0DAD0C6
S1130D3030F021F45F3F19F0CCC0511115C1CFC080
S1130D40F0D098F39923C9F35523B1F3951B550BB0
S1130D50BB27AA2762177307840738F09F5F5F4F8A
S1130D60220F331F441FAA1FA9F333D00E2E3AF0CB
S1130D70E0E830D091505040E695001CCAF729D0E5
S1130D80FE2F27D0660F771F881FBB1F2617370734
S1130D904807AB07B0E809F0BB0B802DBF01FF2764
S1130DA093585F4F2AF09E3F510568F092C0DCC013
S1130DB05F3FECF3983EDCF3869577956795B7959E
S1130DC0F7959F5FC9F7880F911D9695879597F9B9
S1130DD00895E1E0660F771F881FBB1F6217730732
S1130DE08407BA0720F0621B730B840BBA0BEE1F47
S1130DF088F7E095089504D06894B111B5C00895BA
S1130E0098D088F09F5790F0B92F9927B751A0F048
S1130E10D1F0660F771F881F991F1AF0BA95C9F78A
S1130E2012C0B13081F09FD0B1E008959CC0672F0B
S1130E30782F8827B85F39F0B93FCCF3869577953A
S1130E406795B395D9F73EF4909580957095619523
S1130E507F4F8F4F9F4F0895E89409C097FB3EF44E
S1130E6090958095709561957F4F8F4F9F4F9923F3
S1130E70A9F0F92F96E9BB279395F6958795779571
S1130E806795B795F111F8CFFAF4BB0F11F460FF31
S1130E901BC06F5F7F4F8F4F9F4F16C0882311F089
S1130EA096E911C0772321F09EE8872F762F05C09D
S1130EB0662371F096E8862F70E060E02AF09A9538
S1130EC0660F771F881FDAF7880F9695879597F92D
S1130ED0089597F99F6780E870E060E008959FEFB8
S1130EE080EC089500240A941616170618060906BD
S1130EF0089500240A94121613061406050608958C
S1130F00092E0394000C11F4882352F0BB0F40F413
S1130F10BF2B11F460FF04C06F5F7F4F8F4F9F4F53
S1130F20089557FD9058440F551F59F05F3F71F0D5
S1130F304795880F97FB991F61F09F3F79F087953C
S1130F400895121613061406551FF2CF4695F1DFC5
S1130F5008C0161617061806991FF1CF8695710555
S1130F60610508940895E894BB2766277727CB0189
S1130F7097F9089566D008F48FEF08950BD0C0CF89
S1130F80B1DF28F0B6DF18F0952309F0A2CFA7CF80
S1130F901124EACFC6DFA0F3959FD1F3950F50E05B
S1130FA0551F629FF001729FBB27F00DB11D639F17
S1130FB0AA27F00DB11DAA1F649F6627B00DA11DBD
S1130FC0661F829F2227B00DA11D621F739FB00D63
S1130FD0A11D621F839FA00D611D221F749F3327D3
S1130FE0A00D611D231F849F600D211D822F762F6C
S1130FF06A2F11249F5750408AF0E1F088234AF069
S1131000EE0FFF1FBB1F661F771F881F91505040B4
S1131010A9F79E3F510570F05CCFA6CF5F3FECF37C
S1131020983EDCF3869577956795B795F795E795A0
S11310309F5FC1F7FE2B880F911D9695879597F9B1
S11310400895990F0008550FAA0BE0E8FEEF161655
S11310501706E807F907C0F012161306E407F507A8
S113106098F0621B730B840B950B39F40A2661F01C
S1131070232B242B252B21F408950A2609F4A140BF
S1131080A6958FEF811D811D089597FB072E16F4F9
S1131090009407D077FD09D00E947B0807FC05D097
S11310A03EF4909581959F4F0895709561957F4F7B
S11310B00895A1E21A2EAA1BBB1BFD010DC0AA1F95
S11310C0BB1FEE1FFF1FA217B307E407F50720F0AD
S11310D0A21BB30BE40BF50B661F771F881F991F28
S11310E01A9469F760957095809590959B01AC0171
S11310F0BD01CF010895AA1BBB1B51E107C0AA1F64
S1131100BB1FA617B70710F0A61BB70B881F991FA4
S11311105A95A9F780959095BC01CD010895F8944E
S1051120FFCFFB
S11311220000404001000100010001000100010033
S113113200000000010001000000000001000100A5
S11311420000000001000100000000000100010095
S11311520000000001000100000000000100010085
S11311620000000001000100010001000100000074
S11311720000010000000000010001000000010065
S11311820000010000000000000001000000000057
S11311920000010000000000000001000000000047
S11311A20000010000000000000001000000010036
S11311B20100010001000100010001000100000022
S11311C20000000001000000000000000100000017
S11311D20000000001000100010001000100010003
S11311E200000000000001000000000000000100F7
S11311F200000000000001000100010001000100E4
S113120201000100010000000000000001000000D4
S113121200000000010000000000000001000100C5
S113122201000100010000000000000001000000B4
S113123200000000010000000000000001000100A5
S11312420100010001000100000000000100010092
S11312520000000001000100000000000100010084
S11312620000000001000100010001000100000073
S11312720000000001000000000000000100000066
S11312820000000001000000000000000100010055
S11312920100010001000100000000000000010043
S11312A20000000000000100000000000000010036
S11312B20100010001000000000000000100000024
S11312C20000000001000000000000000100010015
S11312D20100010001000100010001000100010000
S11312E200000000000001000000000000000100F6
S11312F200000000000001000100010001000100E3
S113130200000000010001000000000001000100D3
S113131200000000010001000100010001000100C1
S113132201000100010000000000000001000000B3
S113133200000000010000000000000001000000A5
S11313420000000001000000000000000100000095
S11313520000000001000000000000000100000085
S11313620000000001000100010001000100010071
S11313720000000001000100000000000100010063
S11313820000000001000100010001000100010051
S11313920000000001000100000000000100010043
S11313A20000000001000100010001000100010031
S11313B20100010001000100000000000100010021
S11313C20000000001000100000000000100010013
S11313D20100010001000000000000000100000003
S11313E200000000010000000000000001000100F4
S11313F201000100010000000000000000000000E4
S113140200000000000000000000000000000000D6
S113141200000000000000000000000000000000C6
S113142200000000000000000000000000000000B6
S113143200000000000000000000000000000000A6
S11314420000000000000000000000000000000096
S11314520000000000000000000000000000000086
S11314620000000000000000000000000000000076
S11314720000000000000000000000000000000066
S109148200000000000060
S9030000FC
