S00A000045352E73726563A0
S11300000C942A000C943F000C943F000C943F0085
S11300100C943F000C943F000C943F000C943F0060
S11300200C943F000C943F000C943F000C943F0050
S11300300C943F000C943F000C943F000C943F0040
S11300400C943F000C943F000C943F000C943F0030
S11300500C943F0011241FBECFE5D8E0DEBFCDBF16
S113006010E0A0E6B0E0ECE3F1E002C005900D92F0
S1130070A836B107D9F70E948D000C949C000C940B
S11300800000161617064CF420E030E0880F811D9E
S11300902F5F3F4F62177307C9F70895CF92DF921E
S11300A0EF92FF920F931F93CF93DF938C016B0119
S11300B0E12CF12C26C0BE0181E00E94410082BBEC
S11300C0C6018C0F9D1F87709078992324F40197A3
S11300D0886F9F6F0196F801E80FF91F80818BBB31
S11300E089EF90E00197F1F700C000002196C83035
S11300F0D10509F79FEFE91AF90A8AE0E816F10435
S113010019F0C0E0D0E0D7CFDF91CF911F910F91CC
S1130110FF90EF90DF90CF9008958FEF8ABB81BB63
S1130120C0E0D0E0BE0180E690E00E944E0021963F
S10F0130C830D105B9F7F4CFF894FFCF24
S10B013CFF81DFEFF7FB81FFF7
S9030000FC
